:100000000C9434000C9451000C9451000C94510049
:100010000C9451000C9451000C9451000C9451001C
:100020000C9451000C9451000C9451000C9451000C
:100030000C9451000C9451000C9451000C945100FC
:100040000C9451000C9451000C9451000C945100EC
:100050000C9451000C9451000C9451000C945100DC
:100060000C9451000C94510011241FBECFEFD8E026
:10007000DEBFCDBF14E0A0E0B1E0E2E7FCE002C0EB
:1000800005900D92AA32B107D9F724E0AAE2B4E0B4
:1000900001C01D92A738B207E1F70E947D020C94BF
:1000A00037060C94000098E087FF11C02B9A2D9A18
:1000B000880F2AE12A95F1F700C02D989150A1F7F9
:1000C000299A85E38A95F1F70000299808952B98DD
:1000D000EECF9B01AC0184E0220F331F441F551F5C
:1000E0008A95D1F760E074E284EF90E00E94F1021B
:1000F000DA01C9010197A109B109892F9A2FAB2F04
:10010000BB278093C50021502093C4001092C000EB
:1001100088E18093C10086E08093C20008959091A9
:10012000C00095FFFCCF8093C60008958091C00069
:1001300087FFFCCF8091C6000895CF93DF93EC0139
:100140008991811103C0DF91CF9108950E948F00A2
:10015000F7CF84E091E00E949D008AE191E00E9447
:100160009D0085E491E00E949D008FE691E00E9451
:100170009D0087EA91E00E949D0084E292E00E9447
:100180009D0080E692E00E949D008BE892E00E9434
:100190009D0083EB92E00C949D009091300482309E
:1001A00081F491110AC08091310490E0019665E0DC
:1001B00070E00E94DD028093310481E0809330047E
:1001C000089581E09923D1F380E0F8CF8091010177
:1001D000880F31F080930101809101010C9453004C
:1001E00081E0F8CF80910001880F39F08093000101
:1001F0008091000180950C94530081E0F7CF90919D
:100200002C04892F880F97FF06C080932C048091BF
:100210002C040C9453008160F8CF80912B04882328
:1002200051F08FEF0E94530080912B0491E08927B9
:1002300080932B04089580E0F5CF80912A040E94DA
:10024000530080912A048F5F80932A04089580913F
:100250003104823091F038F4882359F0813059F01C
:1002600080E00C945300833051F08430C9F70C9433
:100270001D010C94E6000C94F2000C94FF000C9409
:100280000D0181EC80937C0087E880937A000895CB
:1002900080917A00806480937A0080917A0086FD54
:1002A000FCCF2091780030917900ACE4B4E00E945A
:1002B0001303DC01CB012AE0B695A79597958795A6
:1002C0002A95D1F70895CF93DF93EC010E9448015E
:1002D0006AE070E00E94C9028883CB01DF91CF9170
:1002E00008950F931F93CF93DF93CDB7DEB7659734
:1002F0000FB6F894DEBF0FBECDBFCE0145960E946B
:1003000063012D891F922F9399279F938F938CEDD3
:1003100092E09F938F938E010F5F1F4F1F930F9358
:100320000E945F03C8010E949D000FB6F894DEBFD3
:100330000FBECDBF65960FB6F894DEBF0FBECDBF22
:10034000DF91CF911F910F9108950F931F93CF933A
:10035000DF93CDB7DEB76E970FB6F894DEBF0FBE52
:10036000CDBF64E673E083E394E00E944003892BF1
:1003700041F481E0809330048CEE92E00E949D0075
:1003800050C069E873E083E394E00E944003892B46
:1003900029F4109230048DEF92E0F0CF45E050E068
:1003A0006EE073E083E394E00E944903892B81F4BB
:1003B00089E394E00E942203009739F090930301AF
:1003C0008093020184E193E0D9CF84E293E0D6CF19
:1003D00046E050E064E373E083E394E00E94490365
:1003E000892B69F58AE394E00E942203853020F589
:1003F0008093310499279F938F938BE393E09F938E
:100400008F938E010F5F1F4F1F930F930E945F0307
:10041000C8010E949D000F900F900F900F900F90B9
:100420000F906E960FB6F894DEBF0FBECDBFDF9172
:10043000CF911F910F91089582E593E09FCF63E6DE
:1004400073E083E394E00E944003892B31F481E060
:1004500080932F048AE693E091CF68E873E083E30A
:1004600094E00E944003892B29F410922F048EE817
:1004700093E084CF6CEA73E083E394E00E9440034E
:10048000892B19F40E947101CCCF62EB73E083E3F6
:1004900094E00E944003892B19F40E94A900C1CF67
:1004A00087EB93E06BCF8091C00087FF25C08091E0
:1004B000C600E09132048A3061F4EE2371F00E94AC
:1004C0008F008091320490E00E94A50110923204C6
:1004D0000895E13588F48D3079F091E09E0F909386
:1004E0003204F0E0ED5CFB4F8083E92FF0E0ED5C3F
:1004F000FB4F10820C948F00089584B18A6284B9F6
:1005000085B18D7D85B989E90E94530060E875E267
:1005100080E090E00E94690089EC93E00E949D00D9
:100520000E9441018FE094E00E949D00D0E0C0E075
:100530000E94530280913004882361F021968091BB
:100540000201909103018C179D0720F40E9427015E
:10055000D0E0C0E080912F04882369F080912D04C1
:1005600090912E040196883E23E0920758F49093D0
:100570002E0480932D048FE39FE10197F1F700C0D3
:100580000000D6CF10922E0410922D040E9471010B
:10059000F2CFAA1BBB1B51E107C0AA1FBB1FA617A6
:1005A000B70710F0A61BB70B881F991F5A95A9F71C
:1005B00080959095BC01CD01089597FB072E16F408
:1005C000009407D077FD09D00E94C90207FC05D02E
:1005D0003EF4909581959F4F0895709561957F4F5A
:1005E0000895A1E21A2EAA1BBB1BFD010DC0AA1F74
:1005F000BB1FEE1FFF1FA217B307E407F50720F08C
:10060000A21BB30BE40BF50B661F771F881F991F06
:100610001A9469F760957095809590959B01AC014F
:10062000BD01CF010895A29FB001B39FC001A39F58
:10063000700D811D1124911DB29F700D811D11241B
:10064000911D0895FC0188279927E8942191203273
:10065000E9F3293010F02E30C8F32B3241F02D325F
:1006600039F4689404C00E945703820F911D2191B0
:1006700020532A30C0F31EF4909581959F4F089522
:10068000FB01DC018D91019080190110D9F3990BC8
:100690000895FB01DC014150504030F08D910190F4
:1006A000801919F40020B9F7881B990B08957AE096
:1006B000979F902D879F802D910D11240895AEE076
:1006C000B0E0E5E6F3E00C940E060D891E8986E0A5
:1006D0008C831A8309838FEF9FE79E838D83AE01FE
:1006E000475E5F4F6F89788DCE0101960E9482032D
:1006F0002F813885020F131FF80110822E96E4E037
:100700000C942A06ABE0B0E0E8E8F3E00C940006B5
:100710007C013B018A01FC0117821682838181FFE3
:10072000C8C1CE0101965C01F7019381F30193FDED
:10073000859193FF81913F01882309F453C185324C
:1007400039F493FD859193FF81913F01853229F41E
:10075000B70190E00E947205E7CF912C212C312C3B
:10076000FFE1F31538F08B3211F190F4803209F18A
:10077000833229F137FC3CC020ED280F2A3050F598
:1007800036FE20C08AE0989E200D1124922E06C0CD
:100790008D3291F0803371F7689430F8F30193FD56
:1007A000859193FF81913F018111DACF21C0689437
:1007B00031F8689432F8F2CF689433F8EFCF689448
:1007C00034F8ECCFEAE02E9E200D1124222E6894FE
:1007D00035F8E4CF8E3229F436FC04C1689436F83B
:1007E000DDCF8C3619F4689437F8D8CF8836B1F25B
:1007F000982F9F7D95549330E0F08336A1F1833795
:10080000C1F1833509F063C02801F2E04F0E511C9D
:10081000F801C080D180692D70E036FC02C06FEF16
:100820007FEFC6010E945C054C01689437F8820195
:100830000AC00C5F1F4FFFE3F98388248394912C37
:100840006501E89437F833FE2DC0522C81149104D1
:1008500071F5552009F468CFB70180E290E00E945D
:1008600072055A94F6CFF801808189830E5F1F4F7D
:10087000E4CF2801F2E04F0E511CF801C080D18076
:10088000692D70E036FC02C06FEF7FEFC6010E9459
:1008900067054C018201D5CFB70180E290E00E944C
:1008A00072052A942814190409F0B0F7CECFF60186
:1008B00037FC859137FE81916F01B70190E00E946E
:1008C000720551105A94F1E08F1A9108BFCF843607
:1008D00019F0893609F077C0F80137FE6BC06081E6
:1008E0007181828193810C5F1F4FF32DFF763F2E24
:1008F00097FF09C090958095709561957F4F8F4FB8
:100900009F4F689437F82AE030E0A5010E94A205C5
:10091000C82ECA188C2C432C36FE0CC0E89440F824
:10092000C91440F434FE05C032FC03C0F32DFE7E32
:100930004F2E892C44FE95C0FE01EC0DF11D8081E7
:10094000803309F087C0242D297E422E842D8870A3
:10095000582E43FC95C040FE8FC09C2C821418F486
:100960002C0C922C981844FE91C0B70180E390E0C3
:100970000E94720542FE09C088E790E041FE02C075
:1009800088E590E0B7010E947205C91408F48AC096
:10099000CA94D12C9FEFC91AD90ACA0CDB1CF601E4
:1009A00082916F01B70190E00E947205AC14BD0402
:1009B000B1F74FCF60817181072E000C880B990B26
:1009C0000E5F1F4F92CFD32CE894D4F82AE030E08A
:1009D000853739F1232D297FD22E8F3601F148F446
:1009E0008835A9F0F701868197812B96E2E10C9476
:1009F0001C06803749F08837A9F7D4FE02C06894F6
:100A0000D2F820E130E00DC06894D4F8F6CF34FE7F
:100A100003C0822F8660D82E20E132E002C028E099
:100A200030E0F801D7FE0FC060817181828193812F
:100A30000C5F1F4FA5010E94A205C82ECA183D2CAD
:100A4000E89437F867CF6081718190E080E00E5FB5
:100A50001F4FF0CF42FC02C0839478CF83948394DD
:100A600075CF842D867809F471CFF6CFB70180E277
:100A700090E00E94720583948214C0F3512C73CFCE
:100A8000522C5818821408F46ECFF8CF842D867833
:100A900009F47BCF8BE241FE80E247FC8DE2B70197
:100AA00090E071CFB70180E390E00E9472059A94C4
:100AB0006CCF8FEF9FEF99CFFC0105906150704094
:100AC0000110D8F7809590958E0F9F1F0895FC0117
:100AD0006150704001900110D8F7809590958E0F6D
:100AE0009F1F08950F931F93CF93DF93182F092F04
:100AF000EB018B8181FD09C01FEF0FEF812F902F3C
:100B0000DF91CF911F910F91089582FF14C02E8124
:100B10003F818C819D81281739073CF4E881F98158
:100B2000CF0101969983888310838E819F810196DE
:100B30009F838E83E3CFE885F985812F0995892BE3
:100B4000A1F3DACFFA01AA27283051F1203181F13F
:100B5000E8946F936E7F6E5F7F4F8F4F9F4FAF4FC5
:100B6000B1E03ED0B4E03CD0670F781F891F9A1FD8
:100B7000A11D680F791F8A1F911DA11D6A0F711D8C
:100B8000811D911DA11D20D009F468943F912AE098
:100B9000269F11243019305D3193DEF6CF01089580
:100BA000462F4770405D4193B3E00FD0C9F7F6CFB1
:100BB000462F4F70405D4A3318F0495D31FD405279
:100BC000419302D0A9F7EACFB4E0A695979587950F
:100BD00077956795BA95C9F70097610571050895EE
:100BE0009B01AC010A2E069457954795379527959A
:100BF000BA95C9F7620F731F841F951FA01D089532
:100C00002F923F924F925F926F927F928F929F921C
:100C1000AF92BF92CF92DF92EF92FF920F931F930A
:100C2000CF93DF93CDB7DEB7CA1BDB0B0FB6F894BB
:100C3000DEBF0FBECDBF09942A88398848885F84FB
:100C40006E847D848C849B84AA84B984C884DF806C
:100C5000EE80FD800C811B81AA81B981CE0FD11D50
:100C60000FB6F894DEBF0FBECDBFED010895F89426
:020C7000FFCFB4
:100C720001016400417661696C61626C6520636F99
:100C82006D6D616E64733A0D0A0073746172742043
:100C920020202020202020202D20537461727420D7
:100CA2007468652063757272656E74206566666528
:100CB20063740D0A0073746F70202020202020209E
:100CC2002020202D2053746F702074686520637576
:100CD2007272656E74206566666563740D0A0073D0
:100CE20070656564203C6E3E20202020202D20531C
:100CF2006574207468652065666665637420737028
:100D020065656420286E3A2064656C617920696E9D
:100D1200206D73290D0A00656666656374203C6E5A
:100D22003E202020202D2053656C65637420616E67
:100D3200206566666563742028303A2072756E6E8F
:100D4200696E675F666972655F6C2C20313A20724A
:100D5200756E6E696E675F736861646F772C20329F
:100D62003A206A6F686E736F6E5F636F756E74653B
:100D7200722C20333A20626C696E6B5F616C6C2C52
:100D820020343A2062696E6172795F636F756E74A6
:100D9200290D0A00547374617274202020202020CF
:100DA20020202D2053746172742073656E64696E05
:100DB200672074656D706572617475726520657601
:100DC2006572792032207365636F6E64730D0A0059
:100DD2005473746F702020202020202020202D208A
:100DE20053746F702073656E64696E672074656DED
:100DF20070657261747572650D0A005474656D7068
:100E02002020202020202020202D2053656E6420C9
:100E120074656D7065726174757265206F6E63655D
:100E22000D0A0068656C70202020202020202020E0
:100E3200202D2053686F7720746869732068656C71
:100E420070206D6573736167650D0A0054656D707E
:100E52003A2025642E256420430D0A004566666506
:100E6200637420737461727465640D0A004566666A
:100E72006563742073746F707065640D0A0073701B
:100E8200656564005370656564207570646174659E
:100E9200640D0A00496E76616C6964207370656541
:100EA200640D0A006566666563740045666665637F
:100EB20074206368616E67656420746F2025640D19
:100EC2000A00496E76616C696420656666656374C2
:100ED2000D0A005473746172740054656D7065720A
:100EE20061747572652073656E64696E67207374D0
:100EF20061727465640D0A005473746F70005465F6
:100F02006D70657261747572652073656E64696E69
:100F1200672073746F707065640D0A005474656D98
:100F2200700068656C7000496E76616C696420635C
:100F32006F6D6D616E640D0A004C696768742045BF
:100F4200666665637473204D616368696E652052DD
:100F5200656164790D0A54797065202768656C7043
:100F62002720746F2073656520617661696C616208
:100F72006C6520636F6D6D616E64732E0D0A0041A6
:100F8200444320496E697469616C697A65642066BC
:0A0F92006F72204C4D33350D0A003C
:00000001FF
